:100000000C948C000C94D30F0C94AD000C944810FD
:100010000C9467100C94AD000C94AD000C94AD00E2
:100020000C94AD000C94AD000C94AD000C94AD009C
:100030000C94AD000C94AD000C94AD000C94AD008C
:100040000C94AD000C94700F0C94AD000C94AD00AA
:100050000C94AD000C944B0F0C94AD000C94AD00BF
:100060000C94AD000C947E100C94AD000C94AD007B
:100070000C94AD000C949B100C94AD000C94AD004E
:100080000C94AD000C94AD000C94AD000C94AD003C
:100090000C94AD000C94AD000C94AD000C94AD002C
:1000A0000C94AD000C94AD000C94AD000C94AD001C
:1000B0000C94AD000C94AD000C94AD000C94AD000C
:1000C0000C94AD000C94AD000C94AD000C94911008
:1000D0000C94AD000C94AD000C94AD000C94AD00EC
:1000E0000C94AD000C94B5030C947D0C0C94AF00F3
:1000F0000C9478080C94240B0C940A020C942C0594
:100100000C94E80D0C9485060C94E6000C94800485
:100110000C941F030C94CB0911241FBECFEFD1E226
:10012000DEBFCDBF00E00CBF16E0A0E0B2E0E0EB28
:10013000FCE200E00BBF02C007900D92AC3FB1079C
:10014000D9F728E0ACEFB6E001C01D92A035B207A8
:10015000E1F70E9441120C9456160C94000088E1BD
:1001600098E00FB6F894A895809360000FBE909326
:100170006000FFCF87FF1EC0749A9091020183FF39
:100180001BC09860909302019091020182FF16C0FB
:100190009061909302019091020181FF11C09062E1
:1001A0009093020180FF0EC08091020180648093D1
:1001B000020108957498E1CF977FE4CF9F7EE9CF45
:1001C0009F7DEECF809102018F7BF1CFEF92FF9266
:1001D0000F931F93CF93DF93CDB7DEB760970FB622
:1001E000F894DEBF0FBECDBF80910701826080937F
:1001F0000701809108018260809308012FEF81EE52
:1002000094E0215080409040E1F700C00000FE01E2
:10021000319680E1DF011D928A95E9F781E0888BB4
:100220008F017E01B1E1EB0EF11CF80181918F018C
:100230000E940B120E151F05C1F7809108018D7FDA
:100240008093080160960FB6F894DEBF0FBECDBF55
:10025000DF91CF911F910F91FF90EF900895EF9252
:10026000FF920F931F93CF93DF93DC012D913C916D
:10027000E0EAF3E0D0E0C0E040815181421753074B
:1002800081F5428153814617570759F58C01CE01FC
:10029000880F991F880F991FFC01E45CFC4F7F01B8
:1002A000808191810E94D8118DE494E00E94D81140
:1002B000D7011296ED91FC91199586E08C9FF00183
:1002C0008D9FF00D1124E056FC4F84819581F8013B
:1002D00091838083DF91CF911F910F91FF90EF90D9
:1002E000089521963696C931D10531F6F3CFCF92D4
:1002F000DF92EF92FF9281B1806F81B982B1806FFE
:1003000082B984B1806C84B98DB188638DB98EB1A6
:1003100088638EB99D9AA59A809101018867809320
:1003200001018091020188678093020181B18F6091
:1003300081B9109A0E94EA100E94BE110E94FB111E
:100340000E941E120E946F110E947D110E942E11A8
:1003500083B7817F83BF789486E394E00E9435124F
:10036000C0900407D0900507E0900607F0900707BB
:1003700086E490E02091300127FF28C020913601CB
:10038000973019F52133F1F48FE39CE90197F1F7E8
:1003900000C0000082E494E00E9435128FE39CE9E3
:1003A0000197F1F700C0000080E594E00E9435124B
:1003B00080E50E94D11186E4FF90EF90DF90CF900E
:1003C0000C94D111203309F480E59F5F409104071C
:1003D0005091050760910607709107074C195D0958
:1003E0006E097F09453651056105710518F2E1CFA7
:1003F000E9E6F0E0808180638083EA9A0895EA98D4
:100400000895E9E6F0E08081806C8083EB9A08959E
:10041000EB980895CF92DF92EF92FF9287B190917F
:10042000360221E030E0A90101C0440F9A95EAF7B5
:10043000842B87B94FEF69E678E141506040704006
:10044000E1F700C0000047B180913002B90102C05D
:10045000660F771F8A95E2F7CB019091330201C0B6
:10046000220F9A95EAF7822B842B87B90E941611E6
:100470000E940A110E9401020E948C1140910407FF
:1004800050910507609106077091070730E020E062
:100490008091FF06882309F453C0C9018155910951
:1004A0008034910530F480917707809178078091AE
:1004B00079072F5F3F4F1092FF0680917B07909145
:1004C0007C07A0917D07B0917E078933914CA140B4
:1004D000B10550F1C0907B07D0907C07E0907D077C
:1004E000F0907E0780914A0890914B08A0914C08AB
:1004F000B0914D088C0D9D1DAE1DBF1D80934A0807
:1005000090934B08A0934C08B0934D08E09180075E
:10051000F091810780914E0890914F088E0F9F1F98
:1005200090934F0880934E0810927B0710927C079F
:1005300010927D0710927E0710928107109280071B
:100540008091040790910507A0910607B0910707D5
:10055000841B950BA60BB70B813D9740A105B105F8
:1005600008F496CF0E9410110E9492110E94080276
:1005700080914A0890914B08A0914C08B0914D0889
:1005800080914E0890914F082F9A2FEF49E668E12D
:10059000215040406040E1F700C00000809112020D
:1005A0000E94BA007FEF89E698E171508040904048
:1005B000E1F700C000000E943411809106020E9401
:1005C000BA00EFEF29E648E1E15020404040E1F772
:1005D00000C000000E943411809109020E94BA00FC
:1005E0006FEF79E688E1615070408040E1F700C02C
:1005F00000000E94341180910C020E94BA009FEF0B
:10060000E9E628E19150E0402040E1F700C0000019
:100610000E94341180910F020E94BA004FEF69E6E8
:1006200078E1415060407040E1F700C000000E9456
:1006300034112F98FF90EF90DF90CF900895CF92D4
:10064000DF92EF92FF921F93CF93DF9388B1909147
:10065000360221E030E001C0220F9A95EAF7822BA2
:1006600088B9C0900407D0900507E0900607F09085
:1006700007070E94F8010E9401022F9A10E0D1E0C2
:10068000C0E08091FF06882389F080917707811B65
:10069000990B8B35910514F48091770710917707AA
:1006A00080917807809179071092FF060E9434119B
:1006B000823B27E0920714F0CC2361F0C1E0DD23F8
:1006C00049F0CD2F8C3697402CF48CE594E00E94B5
:1006D000D811D0E08091FD06882351F08091040765
:1006E00090910507A0910607B09107071092FD06AB
:1006F0008091040790910507A0910607B091070724
:100700008C199D09AE09BF09853C9940A105B10529
:1007100008F4B7CF2F980E9408020E94FF0148B149
:100720008091300221E030E0B90102C0660F771FEE
:100730008A95E2F7CB019091330201C0220F9A957E
:10074000EAF7822B842B88B97FEF8DE399E471500F
:1007500080409040E1F700C00000DF91CF911F91F1
:10076000FF90EF90DF90CF900895CF92DF92EF92BD
:10077000FF9248B18091360221E030E0B90102C019
:10078000660F771F8A95E2F7CB018095842388B99D
:100790007FEF89E698E1715080409040E1F700C01A
:1007A000000048B180913002B90102C0660F771F86
:1007B0008A95E2F7CB0190913302B90101C0660F2F
:1007C0009A95EAF7862B8095842388B97FEF87EA8C
:1007D00091E6715080409040E1F700C000008091A8
:1007E000070190914E0201C0220F9A95EAF7282B3B
:1007F00020930701C0900407D0900507E0900607FA
:10080000F09007070E9401020E948C110E9498112B
:1008100010927B0710927C0710927D0710927E0742
:1008200010928107109280070E9416110E940A11EF
:1008300080916900836080936900E89A21E080914B
:10084000FF06882351F08091790780917707809186
:100850007807809179071092FF0680910B07882313
:1008600079F090E080E0FC01EE0FFF1FEE57F84FAB
:1008700031813081019684369105A9F710920B07DA
:100880008091040790910507A0910607B091070792
:100890008C199D09AE09BF09853F9140A105B1059D
:1008A00078F0222369F080917B0790917C07A091DA
:1008B0007D07B0917E07809180079091810720E0AD
:1008C0008091040790910507A0910607B091070752
:1008D0008C199D09AE09BF0989389341A105B1055D
:1008E00008F4ADCF0E9410110E9408020E949211DC
:1008F0000E949E11E898FF90EF90DF90CF900895AE
:10090000CF92DF92EF92FF928091070190914B027C
:1009100021E030E001C0220F9A95EAF7822B809304
:100920000701C0900407D0900507E0900607F090FB
:1009300007070E9401020E948C110E9498110E94D8
:1009400016110E940A1180916900836080936900EA
:10095000E89A31E021E08091FF06882351F08091F0
:1009600078078091770780917807809179071092B6
:10097000FF0680910B07882379F090E080E0FC016E
:10098000EE0FFF1FEE57F84F4181408101968436EC
:100990009105A9F710920B07809104079091050724
:1009A000A0910607B09107078C199D09AE09BF09F0
:1009B0008D3D9540A105B10578F0332369F0109283
:1009C0007B0710927C0710927D0710927E07109291
:1009D00081071092800730E080910407909105070D
:1009E000A0910607B09107078C199D09AE09BF09B0
:1009F000813D9740A105B10578F0222369F08091EF
:100A00007B0790917C07A0917D07B0917E07809134
:100A100080079091810720E080910407909105075D
:100A2000A0910607B09107078C199D09AE09BF096F
:100A300089389341A105B10508F48DCF0E941011AA
:100A40000E9492110E9408020E949E11E898FF9055
:100A5000EF90DF90CF9008956F927F928F929F9248
:100A6000AF92BF92CF92DF92EF92FF920F931F93BC
:100A7000CF93DF93809107019091510221E030E004
:100A800001C0220F9A95EAF7822B80930701C0904C
:100A90000407D0900507E0900607F09007070E9432
:100AA000F8010E9401020E948C110E9416110E94FE
:100AB0000A11612C7724739441E010E000E0812C4E
:100AC000912C5401D0E0C0E08091FF068823D9F03A
:100AD00020917707862D90E030E0281B390B2B35CD
:100AE000310544F42091770730E0281B390B263A72
:100AF0003F4F0CF4CF5F609077078091780780912B
:100B000079071092FF068091FD068823F9F0109274
:100B1000FD068091040790910507A0910607B0910A
:100B200007078C199D09AE09BF0985319540A105BC
:100B3000B10560F0D13009F4CDC0809004079090E9
:100B40000507A0900607B0900707D1E08091040741
:100B500090910507A0910607B09107078C199D0990
:100B6000AE09BF0981329340A105B10578F0772025
:100B700069F010927B0710927C0710927D0710920B
:100B80007E071092810710928007712C80910407D4
:100B900090910507A0910607B09107078C199D0950
:100BA000AE09BF0985319540A105B105E8F04423A0
:100BB000D9F060917B0770917C0780917D079091BF
:100BC0007E07209180073091810750E040E00E942D
:100BD0006012CA01B9010E94B1120E941D130E9445
:100BE0008212162F072F40E080910407909105078D
:100BF000A0910607B09107078C199D09AE09BF099E
:100C000089329342A105B10508F45ECF48B18091C5
:100C1000360221E030E0B90102C0660F771F8A95E5
:100C2000E2F7CB0190913002B90101C0660F9A95AD
:100C3000EAF7862B842B90913302A90101C0440F5F
:100C40009A95EAF7842B88B9809108019091510216
:100C500001C0220F9A95EAF7282B209308011F92D2
:100C6000CF938EE694E09F938F93C1E1D7E0DF931B
:100C7000CF930E948013CE010E94D8110F931F932F
:100C80008FE794E09F938F93DF93CF930E9480131D
:100C9000CE010E94D8110E9410110E9492110E9450
:100CA00008026DB77EB7645F7F4F0FB6F8947EBFC2
:100CB0000FBE6DBFDF91CF911F910F91FF90EF900D
:100CC000DF90CF90BF90AF909F908F907F906F906C
:100CD0000C94FF018091040790910507A0910607ED
:100CE000B091070788199909AA09BB09803B92406E
:100CF000A105B10540F48091040790910507A091EA
:100D00000607B0910707D0E021CF2F923F924F9274
:100D10005F926F927F928F929F92AF92BF92CF928B
:100D2000DF92EF92FF920F931F93CF93DF93CDB794
:100D3000DEB7E3970FB6F894DEBF0FBECDBF48B164
:100D40008091360221E030E0B90102C0660F771FC2
:100D50008A95E2F7CB018095842388B97FEF89E6F5
:100D600098E1715080409040E1F700C0000048B128
:100D700080913002B90102C0660F771F8A95E2F7B1
:100D8000CB019091330201C0220F9A95EAF7822B92
:100D90008095842388B97FEF84E39CE07150804084
:100DA0009040E1F700C00000809004079090050794
:100DB000A0900607B09007070E9401020E948C11C4
:100DC0000E9498110E9416110E940A118091040736
:100DD00090910507A0910607B091070788E2E4E12A
:100DE000F3E0DE01119601900D928A95E1F71BAABE
:100DF00021E02AAB10E0312C212CC12CD12C760122
:100E000019AA00E08091750790917607009709F480
:100E1000F8C0019709F41BC18091FF068823D1F027
:100E2000809177077BA9871B990B97FF03C091954A
:100E3000819591098B3591051CF089A98F5F89AB4C
:100E4000909177079BAB80917807809179070F5F2E
:100E50001092FF060A3099F560917B0770917C072C
:100E600080917D0790917E072091800730918107C6
:100E700050E040E00E946012CA01B9010E94B11224
:100E80000E941D130E9482122B01CB01821993092B
:100E9000883191050CF41EC10E94F80183E20E9482
:100EA000D11110927B0710927C0710927D0710924F
:100EB0007E071092810710928007120100E0809156
:100EC000FD068091040790910507A0910607B09157
:100ED000070788199909AA09BB0989399840A1050A
:100EE000B10580F06AA9662369F010927B07109221
:100EF0007C0710927D0710927E0710928107109256
:100F000080071AAA8091040790910507A09106070F
:100F1000B09107078091040790910507A0910607FB
:100F2000B091070788199909AA09BB0981349C491E
:100F3000A105B10508F466CF82B1806382B948B1DA
:100F40008091360221E030E0B90102C0660F771FC0
:100F50008A95E2F7CB0190913002B90101C0660F8A
:100F60009A95EAF7862B842B9091330201C0220FC9
:100F70009A95EAF7822B88B90E9410110E949E115F
:100F80000E9492110E9408020E94FF011F9279A9FB
:100F90007F938EE694E09F938F9301E117E01F9378
:100FA0000F930E948013C8010E94D8111F921F92B4
:100FB00087EA94E09F938F931F930F930E9480136F
:100FC000C8010E94D8110FB6F894DEBF0FBECDBF86
:100FD000E3960FB6F894DEBF0FBECDBFDF91CF9181
:100FE0001F910F91FF90EF90DF90CF90BF90AF9047
:100FF0009F908F907F906F905F904F903F902F9039
:10100000089582B18F7C82B98FE39CE90197F1F753
:1010100000C0000089E894E00E9435128FE39CE94B
:101020000197F1F700C000008BE994E00E943512AF
:10103000C0900407D0900507E0900607F0900707DE
:1010400061E070E07093760760937507E5CE80915C
:10105000040790910507A0910607B09107078C1926
:101060009D09AE09BF0981329340A105B10560F128
:1010700088E0E3E0F5E0DE01999601900D928A9513
:10108000E1F777247394710EE12FF0E0EE0FFF1F6C
:1010900081E090E08C0F9D1FE80FF91F6081718146
:1010A00088960E9475136CE474E0CE0189960E94C4
:1010B0007513CE0189960E94351290E2C90E93E015
:1010C000D91EE11CF11C172D143109F0A5CE62E0E8
:1010D00070E0B8CF893E9F4F0CF0E3CE80910407BB
:1010E00090910507A0910607B091070784E2D7CE3B
:1010F0008F929F92AF92BF92CF92DF92EF92FF9228
:101100000F931F93CF93DF93CDB7DEB766970FB6DC
:10111000F894DEBF0FBECDBF48B18091360221E00A
:1011200030E0B90102C0660F771F8A95E2F7CB0164
:101130008095842388B97FEF89E698E171508040DB
:101140009040E1F700C0000048B180913002F90101
:1011500002C0EE0FFF1F8A95E2F7CF019091330294
:10116000B90101C0660F9A95EAF7862B8095842312
:1011700088B9FFEF47EA61E6F15040406040E1F78F
:1011800000C0000087B190913F0201C0220F9A95E4
:10119000EAF7282B27B90E94F8010E9401020E9459
:1011A0008C118090040790900507A0900607B090DE
:1011B000070780E000E0C12CD12C760120E010E090
:1011C0009091FF069923D1F04091770790E050E08D
:1011D000481B590B4B35510544F44091770750E0BB
:1011E000481B590B463A5F4F0CF41F5F80917707FD
:1011F00090917807909179071092FF069091FD06E3
:101200009923F9F040910407509105076091060772
:1012100070910707481959096A097B0949305740F5
:101220006105710560F0213009F490C0C090040799
:10123000D0900507E0900607F090070721E0109294
:10124000FD064091040750910507609106077091D3
:101250000707481959096A097B0941305941610555
:10126000710508F4ADCF0E9492110E9408020E94FD
:10127000FF0148B18091360221E030E0F90102C05F
:10128000EE0FFF1F8A95E2F7CF0190913002B9016E
:1012900001C0660F9A95EAF7862B842B9091330252
:1012A000A90101C0440F9A95EAF7842B90913F025F
:1012B00001C0220F9A95EAF7822B88B980E593E561
:1012C000043011F086E49CE49A83898380E593E5F9
:1012D000183011F086E49CE49C838B8380E593E5D1
:1012E0009E838D8380E390E398878F839A87898795
:1012F0009C878B879E878D87988B8F879A8B898B0E
:101300009C8B8B8B9E8B8D8B8E010F5F1F4F7E0175
:10131000F7E1EF0EF11CF80181918F010E94D111CC
:10132000E016F106C1F766960FB6F894DEBF0FBE61
:10133000CDBFDF91CF911F910F91FF90EF90DF9084
:10134000CF90BF90AF909F908F90089540910407E9
:101350005091050760910607709107074C195D09C8
:101360006E097F09473B52406105710590F4409139
:1013700004075091050760910607709107074C1903
:101380005D096E097F09483652406105710508F014
:101390000F5F20E054CF8F929F92AF92BF92CF9277
:1013A000DF92EF92FF920F931F93CF93DF93CDB70E
:1013B000DEB766970FB6F894DEBF0FBECDBF48B15B
:1013C0008091360221E030E0B90102C0660F771F3C
:1013D0008A95E2F7CB018095842388B97FEF89E66F
:1013E00098E1715080409040E1F700C0000048B1A2
:1013F00080913002F90102C0EE0FFF1F8A95E2F7DB
:10140000CF0190913302B90101C0660F9A95EAF7B6
:10141000862B8095842388B9FFEF47EA61E6F15077
:1014200040406040E1F700C00000809107019091CA
:10143000420201C0220F9A95EAF7282B2093070158
:101440000E94F8010E9401020E948C118090040702
:1014500090900507A0900607B090070780E000E095
:10146000C12CD12C760120E010E09091FF06992349
:10147000D1F04091770790E050E0481B590B4B3575
:10148000510544F44091770750E0481B590B463A08
:101490005F4F0CF41F5F80917707909178079091D0
:1014A00079071092FF069091FD069923F9F040917B
:1014B00004075091050760910607709107074819C6
:1014C00059096A097B09493755406105710560F082
:1014D000213009F494C0C0900407D0900507E09033
:1014E0000607F090070721E01092FD0640910407DF
:1014F000509105076091060770910707481959092F
:101500006A097B09413A5F406105710508F4ADCF76
:101510000E9492110E9408020E94FF0148B180912E
:10152000360221E030E0F90102C0EE0FFF1F8A957C
:10153000E2F7CF0190913002B90101C0660F9A9590
:10154000EAF7862B842B90913302A90101C0440F46
:101550009A95EAF7842B88B980910801909142020C
:1015600001C0220F9A95EAF7282B2093080180E505
:1015700093E5023011F086E49CE49A83898380E548
:1015800093E5143011F086E49CE49C838B8380E522
:1015900093E59E838D8380E390E398878F839A877A
:1015A00089879C878B879E878D87988B8F879A8B5F
:1015B000898B9C8B8B8B9E8B8D8B8E010F5F1F4F2E
:1015C0007E01F7E1EF0EF11CF80181918F010E947D
:1015D000D111E016F106C1F766960FB6F894DEBF9A
:1015E0000FBECDBFDF91CF911F910F91FF90EF9074
:1015F000DF90CF90BF90AF909F908F9008954091D3
:1016000004075091050760910607709107074C1970
:101610005D096E097F09473B52406105710590F4F1
:1016200040910407509105076091060770910707E4
:101630004C195D096E097F094836524061057105F4
:1016400008F00F5F20E050CF8F929F92AF92BF9231
:10165000CF92DF92EF92FF920F931F93CF93DF937E
:10166000CDB7DEB766970FB6F894DEBF0FBECDBF1D
:1016700048B18091360221E030E0B90102C0660F26
:10168000771F8A95E2F7CB018095842388B97FEF95
:1016900089E698E1715080409040E1F700C0000079
:1016A00048B180913002F90102C0EE0FFF1F8A9508
:1016B000E2F7CF0190913302B90101C0660F9A950C
:1016C000EAF7862B8095842388B9FFEF47EA61E625
:1016D000F15040406040E1F700C0000080910701F8
:1016E0009091450201C0220F9A95EAF7282B20938A
:1016F00007010E94F8010E9401020E948C11809053
:10170000040790900507A0900607B090070780E0B7
:1017100000E0C12CD12C760120E010E09091FF0672
:101720009923D1F04091770790E050E0481B590B86
:101730004B35510544F44091770750E0481B590B55
:10174000463A5F4F0CF41F5F8091770790917807BE
:10175000909179071092FF069091FD069923F9F078
:1017600040910407509105076091060770910707A3
:10177000481959096A097B094930574061057105C3
:1017800060F0213009F494C0C0900407D0900507A0
:10179000E0900607F090070721E01092FD064091C7
:1017A00004075091050760910607709107074819D3
:1017B00059096A097B09413059416105710508F4ED
:1017C000ADCF0E9492110E9408020E94FF0148B111
:1017D0008091360221E030E0F90102C0EE0FFF1FD8
:1017E0008A95E2F7CF0190913002B90101C0660FEE
:1017F0009A95EAF7862B842B90913302A90101C0B8
:10180000440F9A95EAF7842B88B98091080190914A
:10181000450201C0220F9A95EAF7282B2093080170
:1018200080E593E5043011F086E49CE49A83898393
:1018300080E593E5183011F086E49CE49C838B836B
:1018400080E593E59E838D8380E390E398878F8383
:101850009A8789879C878B879E878D87988B8F87B0
:101860009A8B898B9C8B8B8B9E8B8D8B8E010F5FC4
:101870001F4F7E01F7E1EF0EF11CF80181918F01FE
:101880000E94D111E016F106C1F766960FB6F894E2
:10189000DEBF0FBECDBFDF91CF911F910F91FF90A3
:1018A000EF90DF90CF90BF90AF909F908F90089572
:1018B0004091040750910507609106077091070752
:1018C0004C195D096E097F09473B5240610571055E
:1018D00090F44091040750910507609106077091BC
:1018E00007074C195D096E097F09483652406105AA
:1018F000710508F00F5F20E050CF8F929F92AF925A
:10190000BF92CF92DF92EF92FF920F931F93CF93EC
:10191000DF93CDB7DEB766970FB6F894DEBF0FBE84
:10192000CDBF48B18091360221E030E0B90102C05C
:10193000660F771F8A95E2F7CB018095842388B9DB
:101940007FEF89E698E1715080409040E1F700C058
:10195000000048B180913002F90102C0EE0FFF1F74
:101960008A95E2F7CF0190913302B90101C0660F69
:101970009A95EAF7862B8095842388B9FFEF47EA8A
:1019800061E6F15040406040E1F700C00000809106
:1019900007019091480201C0220F9A95EAF7282B7F
:1019A000209307010E94F8010E9401020E948C11FD
:1019B0008090040790900507A0900607B090070755
:1019C00080E000E0C12CD12C760120E010E0909165
:1019D000FF069923D1F04091770790E050E0481B33
:1019E000590B4B35510544F44091770750E0481BA3
:1019F000590B463A5F4F0CF41F5F80917707909127
:101A00007807909179071092FF069091FD0699232F
:101A1000F9F0409104075091050760910607709115
:101A20000707481959096A097B0949375540610573
:101A3000710560F0213009F4A6C0C0900407D09071
:101A40000507E0900607F090070721E01092FD06D9
:101A500040910407509105076091060770910707B0
:101A6000481959096A097B09413A5F4061057105C6
:101A700008F4ADCF0E9492110E9408020E94FF015B
:101A800048B12091360281E090E0FC0102C0EE0FE7
:101A9000FF1F2A95E2F79F0130913002BC0101C07F
:101AA000660F3A95EAF7262B242B30913302AC01CE
:101AB00001C0440F3A95EAF7242B28B94091080158
:101AC00020914802BC0102C0660F771F2A95E2F7F9
:101AD0009B0130914B02BC0101C0660F3A95EAF7B9
:101AE000262B242B30914E0201C0880F3A95EAF73D
:101AF000822B8093080180E593E5023011F086E4A3
:101B00009CE49A83898380E593E5143011F086E4A0
:101B10009CE49C838B8380E593E59E838D8380E3A7
:101B200090E398878F839A8789879C878B879E8786
:101B30008D87988B8F879A8B898B9C8B8B8B9E8BB9
:101B40008D8B8E010F5F1F4F7E0177E1E70EF11C39
:101B5000F80181918F010E94D111E016F106C1F7C1
:101B600066960FB6F894DEBF0FBECDBFDF91CF9162
:101B70001F910F91FF90EF90DF90CF90BF90AF90AB
:101B80009F908F90089540910407509105076091B0
:101B90000607709107074C195D096E097F09473BDD
:101BA00052406105710590F440910407509105077A
:101BB00060910607709107074C195D096E097F094E
:101BC000483652406105710508F00F5F20E03ECFB6
:101BD0008F929F92AF92BF92EF92FF920F931F93BB
:101BE000CF93DF93CDB7DEB766970FB6F894DEBF1D
:101BF0000FBECDBF48B12091360281E090E0BC011C
:101C000002C0660F771F2A95E2F79B0120952423D7
:101C100028B97FEFE9E6F8E17150E040F040E1F7E4
:101C200000C0000048B120913002BC0102C0660F24
:101C3000771F2A95E2F79B0130913302BC0101C066
:101C4000660F3A95EAF7262B2095242328B97FEFD3
:101C5000E7EAF1E67150E040F040E1F700C0000033
:101C600047B120913902BC0102C0660F771F2A9547
:101C7000E2F79B0130913C0201C0880F3A95EAF7E8
:101C8000822B842B87B90E94F8010E9401020E94D6
:101C90008C110E9416110E940A11809004079090E6
:101CA0000507A0900607B0900707E12CF12C00E093
:101CB00040E010E08091FF068823E1F02091770753
:101CC0008E2D90E030E0281B390B2B35310544F484
:101CD0002091770730E0281B390B263A3F4F0CF450
:101CE0001F5FE090770780917807809179074F5FB9
:101CF0001092FF064A3061F560917B0770917C0776
:101D000080917D0790917E07209180073091810717
:101D100050E040E00E946012CA01B9010E94B11275
:101D20000E941D130E9482126E507109633071056A
:101D300010F4FF24F39410927B0710927C0710920A
:101D40007D0710927E07109281071092800740E075
:101D50008091FD06882319F00F5F1092FD06809197
:101D6000040790910507A0910607B091070788190D
:101D70009909AA09BB09813A9F40A105B10508F458
:101D800099CF0E9492110E9408020E94FF010E94B6
:101D90001F1148B18091360221E030E0B90102C044
:101DA000660F771F8A95E2F7CB0190913002B90157
:101DB00001C0660F9A95EAF7862B842B9091330227
:101DC000A90101C0440F9A95EAF7842B909139023A
:101DD000A90101C0440F9A95EAF7842B90913C0227
:101DE00001C0220F9A95EAF7822B88B980E593E526
:101DF000063011F086E49CE49A83898380E593E5BC
:101E0000163011F086E49CE49C838B8380E593E597
:101E1000F11002C086E49CE49E838D8380E390E30E
:101E200098878F839A8789879C878B879E878D87E2
:101E3000988B8F879A8B898B9C8B8B8B9E8B8D8BB2
:101E40008E010F5F1F4F7E0177E1E70EF11CF80155
:101E500081918F010E94D111E016F106C1F76696BB
:101E60000FB6F894DEBF0FBECDBFDF91CF911F91AB
:101E70000F91FF90EF90BF90AF909F908F9008953B
:101E800081FF05C0129A80FF04C0139A089512982A
:101E9000FACF139808951F920F920FB60F92112444
:101EA0008F939F93AF93BF93809104079091050701
:101EB000A0910607B09107070196A11DB11D80935F
:101EC000040790930507A0930607B0930707BF91F7
:101ED000AF919F918F910F900FBE0F901F9018950B
:101EE0001F920F920FB60F9211240BB60F922F93E1
:101EF0003F934F935F936F937F938F939F93AF9392
:101F0000BF93EF93FF9380910807813019F580917B
:101F10000007909101078093770783E00E94400FAC
:101F200082E0809308071092010710920007FF914A
:101F3000EF91BF91AF919F918F917F916F915F9141
:101F40004F913F912F910F900BBE0F900FBE0F90AE
:101F50001F90189580910807823059F480910007EE
:101F6000909101078093780781E00E94400F83E001
:101F7000D8CF80910807833079F480910007909141
:101F800001078093790780E00E94400F81E08093F1
:101F900008078093FF06C7CF81E08093080780E0A1
:101FA0000E94400FC0CF1F920F920FB60F921124C4
:101FB0000BB60F922F933F934F935F938F939F9303
:101FC000EF93FF9380910E07813069F0823031F1F9
:101FD0001092B20081E080930E07809169008E7F9D
:101FE000809369000CC08091B20080930D078091AE
:101FF000690081608093690082E080930E07FF9101
:10200000EF919F918F915F914F913F912F910F9001
:102010000BBE0F900FBE0F901F9018958091B200CD
:1020200080930C071092B200809169008E7F80939C
:10203000690091E090930E0780910C0720910D07A5
:10204000E0910F07F0911007821BEE0FFF1FEE5774
:10205000F84F8083E0910F07F091100780910C07F3
:10206000EE0FFF1FEE57F84F818320910F0730913D
:102070001007A9014F5F5F4F5093100740930F0760
:102080002436310508F4BBCF90930B07E898B7CFFF
:102090001F920F920FB60F9211240BB60F928F93CF
:1020A0009F93EF93FF9381E08093FD06E9E6F0E0D4
:1020B000808190E189278083FF91EF919F918F919B
:1020C0000F900BBE0F900FBE0F901F9018951F9290
:1020D0000F920FB60F9211248F939F938091000758
:1020E00090910107019690930107809300079F91BB
:1020F0008F910F900FBE0F901F9018951F920F9207
:102100000FB60F9211248F938091C60080937F07A2
:1021100081E08093FE068F910F900FBE0F901F906D
:1021200018951F920F920FB60F9211240F900FBEA9
:102130000F901F9018951F920F920FB60F921124B7
:102140002F934F935F936F937F938F939F93AF934F
:10215000BF93809179008F57990B97FF03C091959A
:102160008195910980937A0720917A0780917A0767
:1021700040917B0750917C0760917D0770917E07AD
:10218000289FC0011124092E000CAA0BBB0B840F41
:10219000951FA61FB71F80937B0790937C07A09382
:1021A0007D07B0937E07809180079091810701960B
:1021B0009093810780938007BF91AF919F918F91FA
:1021C0007F916F915F914F912F910F900FBE0F9064
:1021D0001F901895ECE7F0E0808180648083808117
:1021E00080628083EAE7F0E080818760808380817D
:1021F0008062808380818860808380818068808322
:102200000895ECE7F0E080818260808380818E7F9A
:1022100080830895ECE7F0E08081836080830895F7
:10222000EAE7F0E08081877F80830895EAE7F0E0C5
:102230008081886080838081806480830895089590
:1022400080917B00806480937B0080917A0086FD82
:10225000FCCF80917800909179000895519A599A15
:1022600084B1866084B90895599886E090E024E6A8
:1022700030E0A901082E02C0559547950A94E2F76F
:1022800040FF1DC02A9A299A2998019790F790E05B
:1022900080E02BE030E041E050E01B9B09C0BA0138
:1022A000022E02C0660F771F0A94E2F7862B972B47
:1022B000299A29982150310980F7599A08952A9826
:1022C000E2CF84B1876084B9289A8CB583658CBDD0
:1022D00008958EBD0DB407FEFDCF8EB5089584B56B
:1022E000826084BD85B5836085BDEEE6F0E08081C7
:1022F0008260808389EF87BD0895E1E8F0E0808106
:102300008860808380818360808380E493E0909301
:102310008900809388000895EFE6F0E08081826074
:1023200080830895EFE6F0E080818D7F80830895BB
:10233000E1EBF0E08081846080830895E1EBF0E0E0
:1023400080818B7F80830895E1E9F0E0808188605F
:102350008083808185608083E1E7F0E08081826016
:10236000808388E09DE3909399008093980008957E
:10237000E1E7F0E080818D7F8083089580E18093A4
:10238000C4001092C500E0ECF0E0808182608083A0
:10239000E1ECF0E0808188618083808180688083C7
:1023A00008959091C00095FFFCCF8093C6000895DA
:1023B000CF93DF93EC018991811103C0DF91CF911D
:1023C00008950E94D111F7CF80E18093CC00109244
:1023D000CD00E8ECF0E0808182608083E9ECF0E001
:1023E00080818861808308959091C80095FFFCCF1B
:1023F0008093CE00089580E18093D4001092D500A0
:10240000E0EDF0E0808182608083E1EDF0E08081AA
:102410008861808308959091D00095FFFCCF8093D0
:10242000D6000895CF93DF93EC018991811103C009
:10243000DF91CF9108950E940B12F7CF8FEC80931C
:10244000340110923501E0E3F1E080818260808305
:10245000E1E3F1E08081886180830895909130010B
:1024600095FFFCCF809336010895CF93DF93EC0165
:102470008991811103C0DF91CF9108950E942E129E
:10248000F7CFCF93DF931F921F92CDB7DEB70E9495
:1024900077011A8219828091FE068823E1F3609108
:1024A0007F071092FE0670E0CE0101960E942F0178
:1024B00083B7816083BF889583B78E7F83BFEBCF5F
:1024C000A1E21A2EAA1BBB1BFD010DC0AA1FBB1F38
:1024D000EE1FFF1FA217B307E407F50720F0A21BAA
:1024E000B30BE40BF50B661F771F881F991F1A9417
:1024F00069F760957095809590959B01AC01BD0141
:10250000CF0108950E94F61288F09F5798F0B92FD6
:102510009927B751B0F0E1F0660F771F881F991F18
:102520001AF0BA95C9F714C0B13091F00E94101397
:10253000B1E008950C941013672F782F8827B85FA7
:1025400039F0B93FCCF3869577956795B395D9F770
:102550003EF490958095709561957F4F8F4F9F4F7A
:102560000895E89409C097FB3EF490958095709586
:1025700061957F4F8F4F9F4F9923A9F0F92F96E9CF
:10258000BB279395F695879577956795B795F11144
:10259000F8CFFAF4BB0F11F460FF1BC06F5F7F4FE1
:1025A0008F4F9F4F16C0882311F096E911C07723F3
:1025B00021F09EE8872F762F05C0662371F096E8FC
:1025C000862F70E060E02AF09A95660F771F881FCB
:1025D000DAF7880F9695879597F9089557FD9058E3
:1025E000440F551F59F05F3F71F04795880F97FBD7
:1025F000991F61F09F3F79F0879508951216130691
:102600001406551FF2CF4695F1DF08C016161706BF
:102610001806991FF1CF86957105610508940895F4
:10262000E894BB2766277727CB0197F9089519F41B
:1026300016F40C946B130C945D130E94F612B8F30D
:102640009923C9F3B6F39F57550B87FF0E946E136A
:102650000024A0E640EA900180585695979528F40A
:10266000805C660F771F881F20F026173707480702
:1026700030F4621B730B840B202931294A2BA69559
:1026800017940794202531254A2758F7660F771F9E
:10269000881F20F026173707480730F4620B730BAA
:1026A000840B200D311D411DA09581F7B901842FA8
:1026B0009158880F9695879508959F3F31F09150D6
:1026C00020F4879577956795B795880F911D969516
:1026D000879597F908959FEF80EC089591505040A9
:1026E000660F771F881FD2F70895FB01DC010D905C
:1026F0000020E9F7119701900D920020E1F708956D
:102700000F931F93CF93DF93CDB7DEB72E970FB6FE
:10271000F894DEBF0FBECDBF0E891F8986E08C8383
:102720001A8309838FEF9FE79E838D83AE01465EF8
:102730005F4F688D798DCE0101960E94B0132F8175
:102740003885020F131FF80110822E960FB6F894E9
:10275000DEBF0FBECDBFDF91CF911F910F910895C6
:102760002F923F924F925F926F927F928F929F92A1
:10277000AF92BF92CF92DF92EF92FF920F931F938F
:10278000CF93DF9300D000D000D01F921F92CDB71F
:10279000DEB77C013B018A01FC011782168283812E
:1027A00081FFDDC1CE0101965C01F7019381F30148
:1027B00093FD859193FF81913F01882309F453C1D3
:1027C000853239F493FD859193FF81913F018532E4
:1027D00029F4B70190E00E94C815E7CF912C212C75
:1027E000312CFFE1F31538F08B3211F190F4803287
:1027F00009F1833229F137FC3CC020ED280F2A3043
:1028000050F536FE20C08AE0989E200D1124922EAD
:1028100006C08D3291F0803371F7689430F8F3017F
:1028200093FD859193FF81913F018111DACF21C002
:10283000689431F8689432F8F2CF689433F8EFCFA7
:10284000689434F8ECCFEAE02E9E200D1124222E5D
:10285000689435F8E4CF8E3229F436FC04C16894CC
:1028600036F8DDCF8C3619F4689437F8D8CF88362F
:10287000B1F2982F9F7D95549330E0F08336A1F10B
:102880008337C1F1833509F063C02801F2E04F0EB0
:10289000511CF801C080D180692D70E036FC02C067
:1028A0006FEF7FEFC6010E94B2154C01689437F8B4
:1028B00082010AC00C5F1F4FFFE3F98388248394D1
:1028C000912C6501E89437F833FE2DC0522C811409
:1028D000910471F5552009F468CFB70180E290E0CA
:1028E0000E94C8155A94F6CFF801808189830E5F43
:1028F0001F4FE4CF2801F2E04F0E511CF801C080B9
:10290000D180692D70E036FC02C06FEF7FEFC60109
:102910000E94BD154C018201D5CFB70180E290E045
:102920000E94C8152A942814190409F0B0F7CECFD4
:10293000F60137FC859137FE81916F01B70190E078
:102940000E94C81551105A94F1E08F1A9108BFCF18
:10295000843619F0893609F077C0F80137FE6BC06C
:1029600060817181828193810C5F1F4FF32DFF760F
:102970003F2E97FF09C090958095709561957F4F88
:102980008F4F9F4F689437F82AE030E0A5010E94EE
:10299000F815C82ECA188C2C432C36FE0CC0E894AF
:1029A00040F8C91440F434FE05C032FC03C0F32DD6
:1029B000FE7E4F2E892C44FEAAC0FE01EC0DF11DB7
:1029C0008081803309F09CC0242D297E422E842DE5
:1029D0008870582E43FCAAC040FEA4C09C2C8214D0
:1029E00018F42C0C922C981844FEA6C0B70180E372
:1029F00090E00E94C81542FE09C088E790E041FEC1
:102A000002C088E590E0B7010E94C815C91408F417
:102A10009FC0CA94D12C9FEFC91AD90ACA0CDB1CDB
:102A2000F60182916F01B70190E00E94C815AC14C5
:102A3000BD04B1F74FCF60817181072E000C880B68
:102A4000990B0E5F1F4F92CFD32CE894D4F82AE055
:102A500030E08537E1F1232D297FD22E8F36A9F181
:102A6000F0F4883551F1F701868197812B960FB6E6
:102A7000F894DEBF0FBECDBFDF91CF911F910F91B4
:102A8000FF90EF90DF90CF90BF90AF909F908F908E
:102A90007F906F905F904F903F902F900895803778
:102AA00049F0883701F7D4FE02C06894D2F820E1DB
:102AB00030E00DC06894D4F8F6CF34FE03C0822F06
:102AC0008660D82E20E132E002C028E030E0F80134
:102AD000D7FE0FC060817181828193810C5F1F4F8F
:102AE000A5010E94F815C82ECA183D2CE89437F8A5
:102AF00052CF6081718190E080E00E5F1F4FF0CF78
:102B000042FC02C0839463CF8394839460CF842D6E
:102B1000867809F45CCFF6CFB70180E290E00E949E
:102B2000C81583948214C0F3512C5ECF522C5818D0
:102B3000821408F459CFF8CF842D867809F466CF33
:102B40008BE241FE80E247FC8DE2B70190E05CCF72
:102B5000B70180E390E00E94C8159A9457CF8FEF99
:102B60009FEF84CFFC010590615070400110D8F7B1
:102B7000809590958E0F9F1F0895FC0161507040C5
:102B800001900110D8F7809590958E0F9F1F0895A2
:102B90000F931F93CF93DF93182F092FEB018B8196
:102BA00081FD09C01FEF0FEF812F902FDF91CF9193
:102BB0001F910F91089582FF14C02E813F818C8157
:102BC0009D81281739073CF4E881F981CF010196EE
:102BD0009983888310838E819F8101969F838E8342
:102BE000E3CFE885F985812F1995892BA1F3DACFF9
:102BF000FA01AA27283051F1203181F1E8946F932E
:102C00006E7F6E5F7F4F8F4F9F4FAF4FB1E03ED0D3
:102C1000B4E03CD0670F781F891F9A1FA11D680F71
:102C2000791F8A1F911DA11D6A0F711D811D911DA4
:102C3000A11D20D009F468943F912AE0269F112419
:102C40003019305D3193DEF6CF010895462F47707D
:102C5000405D4193B3E00FD0C9F7F6CF462F4F70D8
:102C6000405D4A3318F0495D31FD4052419302D036
:102C7000A9F7EACFB4E0A6959795879577956795DC
:102C8000BA95C9F700976105710508959B01AC01DC
:102C90000A2E06945795479537952795BA95C9F703
:102CA000620F731F841F951FA01D0895F894FFCF16
:102CB000705A06785F067464067C6906726E067A3E
:102CC00073067678067E7D067182067982067582A5
:102CD000067D82067382067B82067782067F8206E5
:102CE00000870601900602990603A30604AE0605B6
:102CF000B90607C20606CB0605D40604DD0603E8BE
:102D00000602F306B70912B80912B80912B8091277
:102D1000B80912B80912B80912B80912B80912B8DC
:102D2000093A127C7F137B7F137C7E137B7F157B9C
:102D30007F137B7F127C7F127C7E137B7F127C7ED5
:102D4000137B7F127C7E137B7F127C7E137B7F1232
:102D50007C7E137B7F127B7F137B7E137B5AB709AC
:102D600012B70912B70912B70A12B70912B70C1233
:102D7000B80912B70912B70A12B70912B70913B77F
:102D80000912B70A12B70912B80912B70913B7091D
:102D900012B70A12B70912B80912B70913B7091204
:102DA000B80912B70913B70912B80912B70913B74E
:102DB0000912B80912B80912B70A12B70912B809EC
:102DC00012B80928B304B704BB04BF04C304C70482
:102DD000CB04CF04D304D704DB04DF04E304E7040B
:102DE000EB04EF04F304F704FB04FF040B050A02F1
:102DF00014051F031B05B50329058004F6062C05E1
:102E000037058506440578085805CB096D05240B60
:102E100081057D0C9605E80DA205E600A705AF002B
:102E2000B505AF00C305AF00D105AF00DF05AF00AA
:102E3000ED05AF00FB05AF000906AF001706AF00B8
:102E40002506AF003406AF004306AF005206AF00C0
:102E500000003000010001003300020002003300D6
:102E600003000300330004000400330005000500E4
:102E70003300060006003300070007003300080097
:102E8000080033000900090033000A000A0033007B
:102E90000B000B0033000D00010031000D0002009B
:102EA00031000D00030031000D00040031000D0061
:102EB000050031000D00060031000D000700310053
:102EC0000D00080031000D00090031000D000A005E
:102ED00031000D000B0031000D000C0031000D0021
:102EE000000031000D003A30317231323D302C0D8E
:102EF0000A003A30317732303D302C302C0D0A0048
:102F00003A30317731323D302C0D0A00766F6C74D7
:102F10006167652063726F737365640D0A006C6589
:102F20006420626C696E6B733A2025750D0A00721D
:102F30006D733A2025750D0A003A30317732303DF5
:102F40003136302C3530302C0D0A003A30317731A3
:102F5000323D312C0D0A0062656570733A2025758B
:102F60000D0A003136300031363100313632003151
:102F700036330031363400313635003136360031E3
:102F800036370031363800313639003137300031CC
:102F900037310031373200313733003137340031C7
:102FA00037350031373600313737003137380031A7
:102FB0003739003A30317731303D00504F57455264
:102FC000204F4E0047524F554E440050494C4F54ED
:102FD00020535441544520410050494C4F542053F4
:102FE000544154452042004F5645522043555252B9
:102FF000454E5400474643495F4C315F4C4F575F45
:103000004C45414B41474500474643495F4C315F82
:10301000484947485F4C45414B4147450047464377
:10302000495F4C325F4C4F575F4C45414B414745E0
:1030300000474643495F4C325F484947485F4C452B
:10304000414B41474500535455434B2052454C4159
:103050005900554152540053544154452041424F68
:10306000525420310053544154452041424F525450
:1030700020320053544154452041424F5254203392
:103080000053544154452041424F52542034005380
:10309000544154452041424F52542035005354412D
:1030A00054452041424F5254203600535441544518
:1030B0002041424F5254203700535441544520413F
:1030C000424F525420380053544154452041424FFE
:1030D000525420390053544154452041424F5254D8
:1030E0002031300053544154452041424F52542026
:1030F00031310053544154452041424F5254203104
:10310000320054484520454E44005450313200545A
:103110005031390054503231005450323200545042
:103120003235005450323600545033350054503349
:1031300038004E4F4E450053575F4C315F494E00AB
:1031400053575F4C325F494E0053575F474E445FC1
:10315000494E0053575F5354414B5F4C3100535716
:103160005F5354414B5F4C320053575F4C315F4CBF
:103170004C0053575F4C315F484C0053575F4C3203
:103180005F4C4C0053575F4C325F484C0053575FC5
:1031900053544154455F420053575F535441544583
:0C31A0005F410053575F44494F44450015
:00000001FF
