:100000000C948C000C9430110C94AD000C94A51140
:100010000C94C4110C94AD000C94AD000C94AD0084
:100020000C94AD000C94AD000C94AD000C94AD009C
:100030000C94AD000C94AD000C94AD000C94AD008C
:100040000C94AD000C94BB100C94AD000C94AD005E
:100050000C94AD000C9496100C94AD000C94AD0073
:100060000C94AD000C94DB110C94AD000C94AD001D
:100070000C94AD000C94F8110C94AD000C94AD00F0
:100080000C941E110C94AD000C94AD000C94AD00BA
:100090000C94AD000C94AD000C94AD000C94AD002C
:1000A0000C94AD000C94AD000C94AD000C94AD001C
:1000B0000C94AD000C94AD000C94AD000C94AD000C
:1000C0000C94AD000C94AD000C94AD000C94EE11AA
:1000D0000C94AD000C94AD000C94AD000C94AD00EC
:1000E0000C94AD000C94EA000C949B0C0C94F60359
:1000F0000C946D030C94DB000C94DA010C946F0BE0
:100100000C94050F0C94C70D0C943B060C94A3079C
:100110000C94490A0C94160511241FBECFEFD1E2AE
:10012000DEBFCDBF00E00CBF17E0A0E0B2E0E2E52B
:10013000FFE200E00BBF02C007900D92A23AB107A8
:10014000D9F728E0A2EAB7E001C01D92A73FB207A5
:10015000E1F70E9492130C94A7170C94000087FFFC
:100160001EC0749A9091020183FF1BC09860909307
:1001700002019091020182FF16C0906190930201EA
:100180009091020181FF11C090629093020180FF63
:100190000EC08091020180648093020108957498DA
:1001A000E1CF977FE4CF9F7EE9CF9F7DEECF809117
:1001B00002018F7BF1CF86E394E00E94291388E14E
:1001C00098E00FB6F894A895809360000FBE9093C6
:1001D0006000FFCFEF92FF920F931F93CF93DF93B7
:1001E000CDB7DEB760970FB6F894DEBF0FBECDBFB8
:1001F00080910701826080930701809108018260ED
:10020000809308012FEF81EE94E0215080409040D0
:10021000E1F700C00000FE01319680E1DF011D9290
:100220008A95E9F781E0888B8F017E01B1E1EB0EC1
:10023000F11CF80181918F010E945C130E151F05BE
:10024000C1F7809108018D7F809308018091B507E7
:100250001F928F9386E494E09F938F9388EB97E0AF
:100260009F938F930E94D1140F900F900F900F9037
:100270000F900F9088EB97E060960FB6F894DEBF72
:100280000FBECDBFDF91CF911F910F91FF90EF90E7
:100290000C9429130F931F93CF93DF93FC012081BC
:1002A0003181E0EAF3E0D0E0C0E0408151814217C3
:1002B000530719F54281538146175707F1F48C0112
:1002C000FE01EE0FFF1FEE0FFF1FE45CFC4F0280EC
:1002D000F381E02D199586E08C9FF0018D9FF00D44
:1002E0001124E056FC4F84819581F801918380832D
:1002F000DF91CF911F910F91089521963696C931C4
:10030000D10599F6F5CF81B1806F81B982B1806F47
:1003100082B984B1806C84B98DB188638DB98EB196
:1003200088638EB99D9AA59AE1E0F1E080818867A3
:100330008083E2E0F1E080818867808380E180BB98
:1003400081B18F6081B9109A0E9447120E940F13E9
:100350000E944C130E946F130E94C0120E94CE1282
:100360000E947F1285E594E00E9486132FEF80E7BC
:1003700092E0215080409040E1F700C0000083E609
:1003800094E00E94861383B7817F83BF7894089599
:10039000E9E6F0E0808180638083EA9A0895EA9834
:1003A0000895E9E6F0E08081806C8083EB9A0895FF
:1003B000EB9808954F925F926F927F929F92AF92C7
:1003C000BF92CF92DF92EF92FF920F931F93CF9342
:1003D000DF93CDB7DEB766970FB6F894DEBF0FBEDA
:1003E000CDBF87B19091360221E030E0A90101C074
:1003F000440F9A95EAF7842B87B94FEF69E678E1C5
:10040000415060407040E1F700C0000047B180916A
:100410003002F90102C0EE0FFF1F8A95E2F7CF010B
:100420009091330201C0220F9A95EAF7822B842B18
:1004300087B90E9467120E94D1010E94DD12C0900C
:10044000AA07D090AB07E090AC07F090AD07912CD5
:1004500060E050E040E073E01091A507112309F43B
:100460006CC0CA018155910980349105F8F4679FE9
:10047000F001112430E020E0D901A25EB74F8C9149
:10048000DF01A20FB31FAC5ABD4F9C91891B990B82
:1004900097FF03C0919581959109C3970CF0912E18
:1004A0002F5F3F4F2330310539F76F5F4F5F5F4F4D
:1004B0001092A5078091220890912308A09124080A
:1004C000B09125088933914CA140B10550F10091BC
:1004D000220810912308209124083091250880914A
:1004E000F1089091F208A091F308B091F408800F00
:1004F000911FA21FB31F8093F1089093F208A0935D
:10050000F308B093F40820912708309128088091CF
:10051000F5089091F608820F931F9093F608809348
:10052000F5081092220810922308109224081092C5
:10053000250810922808109227088091AA07909108
:10054000AB07A091AC07B091AD078C199D09AE091E
:10055000BF09813D9740A105B10508F47DCF0E94F8
:1005600061120E94E3120E94D8016091F10870911B
:10057000F2088091F3089091F4082091F5083091E9
:10058000F60850E040E00E94B113CA01B9010E9490
:1005900002140E946E140E94D3132B012F9A4FEF66
:1005A00069E678E1415060407040E1F700C000002A
:1005B000809112020E94AF008FEF99E6E8E181502E
:1005C0009040E040E1F700C000000E9485128C01DD
:1005D000809106020E94AF00FFEF29E648E1F1504A
:1005E00020404040E1F700C000000E9485125C01FD
:1005F000809109020E94AF006FEF79E688E16150B7
:1006000070408040E1F700C000000E9485126C013C
:1006100080910C020E94AF009FEFE9E6F8E1915053
:10062000E040F040E1F700C000000E9485127C012C
:1006300080910F020E94AF002FEF49E668E1215040
:1006400040406040E1F700C000000E9485122F98F2
:1006500020E330E33A83298326E43CE4911002C08E
:1006600020E533E53C832B835E824D8220E330E33B
:1006700038872F833A872987BC86AB86DE86CD866E
:10068000F88AEF869A8B898B1C8B0B8B3E8B2D8B7C
:100690008E010F5F1F4F7E0177E1E70EF11CF8011D
:1006A00081918F010E942213E016F106C1F7669630
:1006B0000FB6F894DEBF0FBECDBFDF91CF911F9173
:1006C0000F91FF90EF90DF90CF90BF90AF909F90F1
:1006D0007F906F905F904F900895CF92DF92EF924E
:1006E000FF920F931F93CF93DF9388B190913602BF
:1006F00021E030E001C0220F9A95EAF7822B88B9F9
:10070000C090AA07D090AB07E090AC07F090AD077F
:100710000E94C8010E94D1012F9A10E0D1E0C0E0F0
:100720000E948512823B27E0920714F0CC2361F0EF
:10073000C1E0DD2349F0CD2F8C3697402CF48FE6B5
:1007400094E00E942913D0E00091A307002389F0D0
:100750008091AA079091AB07A091AC07B091AD072B
:10076000112321F081E894E00E9429131092A3073D
:10077000102F8091AA079091AB07A091AC07B09180
:10078000AD078C199D09AE09BF09853C9940A105AB
:10079000B10530F22F980E94D8010E94CF0148B1D4
:1007A0008091300221E030E0B90102C0660F771F6E
:1007B0008A95E2F7CB019091330201C0220F9A95FE
:1007C000EAF7822B842B88B97FEF8DE399E471508F
:1007D00080409040E1F700C00000DF91CF911F9171
:1007E0000F91FF90EF90DF90CF900895CF92DF921E
:1007F000EF92FF921F93CF93DF9348B1809136021F
:1008000021E030E0B90102C0660F771F8A95E2F758
:10081000CB018095842388B97FEF89E698E17150F8
:1008200080409040E1F700C0000048B18091300264
:10083000B90102C0660F771F8A95E2F7CB0190914C
:100840003302B90101C0660F9A95EAF7862B8095AD
:10085000842388B97FEF87EA91E671508040904009
:10086000E1F700C000008091070190914E0201C0A5
:10087000220F9A95EAF7282B20930701C090AA0728
:10088000D090AB07E090AC07F090AD078A9A0E9439
:10089000D1010E94DD120E94E912109222081092EA
:1008A000230810922408109225081092280810920C
:1008B00027080E9467128091690083608093690015
:1008C000E89A11E08091A507882351F080912008D3
:1008D00080911E0880911F08809120081092A50722
:1008E0008091B107882351F130E020E0D0E0C0E0F2
:1008F00090E080E0F901EE0FFF1FE75DF74F4181C7
:10090000840F911D4081C40FD11D2F5F3F4F2436AE
:10091000310581F7805E90468837954020F488E85D
:1009200094E00E942913C054DF41C438D34020F41E
:1009300084E994E00E9429131092B1078091AA07DC
:100940009091AB07A091AC07B091AD078C199D09B0
:10095000AE09BF09853F9140A105B105E0F0112323
:10096000D1F0609122087091230880912408909121
:100970002508209127083091280850E040E00E9487
:10098000B1132A3031054105510520F484EA94E081
:100990000E94291310E08091AA079091AB07A091C3
:1009A000AC07B091AD078C199D09AE09BF09893814
:1009B0009341A105B10508F485CF0E9461120E9400
:1009C000D8010E94E3120E94EF12E8988A982091C1
:1009D0002708309128088091220890912308A0913F
:1009E0002408B09125083F932F93BF93AF939F9313
:1009F0008F9380EC94E09F938F9388EB97E09F9385
:100A00008F930E94D1148DB79EB70A960FB6F894B3
:100A10009EBF0FBE8DBF88EB97E0DF91CF911F91F6
:100A2000FF90EF90DF90CF900C9429136F927F92FC
:100A30008F929F92AF92BF92CF92DF92EF92FF92EE
:100A40000F931F93CF93DF938091070190914B02F7
:100A500021E030E001C0220F9A95EAF7822B8093C3
:100A600007018090AA079090AB07A090AC07B090C8
:100A7000AD078A9A0E94D1010E94DD120E94E912FC
:100A80000E94671280916900836080936900E89AF0
:100A9000772473946624639450ECE52E54E0F52E8D
:100AA00008EB17E06BEDC62E64E0D62E8091A5070B
:100AB000882351F080911F0880911E0880911F08A3
:100AC000809120081092A5078091B107882351F1E9
:100AD00030E020E0D0E0C0E090E080E0F901EE0FEF
:100AE000FF1FE75DF74F4181840F911D4081C40FC7
:100AF000D11D2F5F3F4F2436310581F7805E904630
:100B00008837954020F488E894E00E942913C05467
:100B1000DF41C438D34020F484E994E00E942913D3
:100B20001092B1078091AA079091AB07A091AC07F2
:100B3000B091AD0788199909AA09BB098D3D954067
:100B4000A105B10578F0772069F010922208109283
:100B50002308109224081092250810922808109259
:100B60002708712C8091AA079091AB07A091AC0740
:100B7000B091AD0788199909AA09BB09813D974031
:100B8000A105B10508F44CC0662009F449C02091C4
:100B90002708309128088091220890912308A0917D
:100BA0002408B09125083F932F93BF93AF939F9351
:100BB0008F93FF92EF921F930F930E94D11488EBB3
:100BC00097E00E9429136091220870912308809178
:100BD000240890912508209127083091280850E09A
:100BE00040E00E94B113CA01B9010E9402140E94A0
:100BF0006E140E94D3137F936F93DF92CF921F9353
:100C00000F930E94D11488EB97E00E9429138DB7AF
:100C10009EB740960FB6F8949EBF0FBE8DBF612C55
:100C20008091AA079091AB07A091AC07B091AD0756
:100C300088199909AA09BB0989389341A105B10509
:100C400008F434CF0E9461120E94E3120E94D8017E
:100C50000E94EF12E8988A98DF91CF911F910F912F
:100C6000FF90EF90DF90CF90BF90AF909F908F90CC
:100C70007F906F9008955F926F927F928F929F9274
:100C8000AF92BF92CF92DF92EF92FF920F931F939A
:100C9000CF93DF93809107019091510221E030E0E2
:100CA00001C0220F9A95EAF7822B80930701C0902A
:100CB000AA07D090AB07E090AC07F090AD078A9AF6
:100CC0000E94C8010E94D1010E94DD120E94671299
:100CD000512C7724739401E0612CD0E0812C912C6D
:100CE0005401C0E010E08091A5078823D9F020913D
:100CF0001E08852D90E030E0281B390B2B3531057F
:100D000044F420911E0830E0281B390B263A3F4F4F
:100D10000CF41F5F50901E0880911F0880912008DE
:100D20001092A5078091A3078823F9F01092A307DA
:100D30008091AA079091AB07A091AC07B091AD0745
:100D40008C199D09AE09BF0985319540A105B105F2
:100D500060F0C13009F4CFC08090AA079090AB0733
:100D6000A090AC07B090AD07C1E08091AA07909128
:100D7000AB07A091AC07B091AD078C199D09AE09E6
:100D8000BF0981329340A105B10578F0772069F061
:100D9000109222081092230810922408109225081D
:100DA0001092280810922708712C8091AA07909120
:100DB000AB07A091AC07B091AD078C199D09AE09A6
:100DC000BF0985319540A105B105E8F00023D9F0B0
:100DD0006091220870912308809124089091250841
:100DE000209127083091280850E040E00E94B1137C
:100DF000CA01B9010E9402140E946E140E94D3130A
:100E0000662ED72F00E08091AA079091AB07A091A2
:100E1000AC07B091AD078C199D09AE09BF098932A5
:100E20009342A105B10508F45ECF48B18091360226
:100E300021E030E0B90102C0660F771F8A95E2F722
:100E4000CB0190913002B90101C0660F9A95EAF783
:100E5000862B842B90913302A90101C0440F9A95EF
:100E6000EAF7842B88B9809108019091510201C062
:100E7000220F9A95EAF7282B209308011F921F93BF
:100E800085EE94E09F938F9308EB17E01F930F93E9
:100E90000E94D114C8010E942913DF936F928BED39
:100EA00094E09F938F931F930F930E94D114C801D6
:100EB0000E9429130E9461120E94E3120E94D8012D
:100EC0000E94CF018A988DB79EB70C960FB6F89402
:100ED0009EBF0FBE8DBFDF91CF911F910F91FF90ED
:100EE000EF90DF90CF90BF90AF909F908F907F90CA
:100EF0006F905F9008958091AA079091AB07A091A1
:100F0000AC07B091AD0788199909AA09BB09803BC4
:100F10009240A105B105A8F48091AA079091AB0772
:100F2000A091AC07B091AD0788199909AA09BB092E
:100F30008F369240A105B10520F081E894E00E942F
:100F40002913C0E012CF2F923F924F925F926F927F
:100F50007F928F929F92AF92BF92CF92DF92EF9249
:100F6000FF920F931F93CF93DF93CDB7DEB7CC548F
:100F7000D1090FB6F894DEBF0FBECDBF48B1809146
:100F8000360221E030E0B90102C0660F771F8A9572
:100F9000E2F7CB018095842388B97FEF89E698E159
:100FA000715080409040E1F700C0000048B180914E
:100FB0003002D90102C0AA0FBB1F8A95E2F7CD010A
:100FC0009091330201C0220F9A95EAF7822B809507
:100FD000842388B9BFEF24E33CE0B1502040304087
:100FE000E1F700C000004091AA075091AB07609163
:100FF000AC077091AD0721964CAF5DAF6EAF7FAF80
:1010000021970E94D1010E94DD120E94E9120E94E4
:10101000671228E2E4E1F3E0CE010196DC010190E1
:101020000D922A95E1F78A9A1FAA1EAA1DAA51E0DD
:101030005CAF312C18AE19AE1AAE1BAE412C512C40
:101040003201812C912C540110E0212C80911C083C
:1010500090911D08009709F471C1019709F491C19D
:101060000091A507002309F492C080911E089FA952
:10107000292F30E090E0821B930B8B35910544F4CF
:1010800080911E0890E0821B930B863A9F4F0CF4D0
:101090002394B0911E08BFAB80911F088091200857
:1010A000209122083091230840912408509125086E
:1010B00029AB3AAB4BAB5CABC0902708D09028086B
:1010C000F12CE12C1092220810922308109224088F
:1010D000109225081092280810922708CA01B90119
:1010E000A70196010E94B11325962CAF3DAF4EAFDC
:1010F0005FAF259726966FAD269727967FAD2797EA
:1011000028968FAD289729969FAD29972A962FADBF
:101110002A972B963FAD2B972C964FAD2C972D965B
:101120005FAD2D970E94B11323968EAD9FAD23978F
:10113000821B930B853833E093070CF469C14DA9EA
:10114000411107C00E94C80184E195E00E94291363
:101150000DAB1092A5072A96CFAE2A972B96DFAE3D
:101160002B972C96EFAE2C972D96FFAE2D9799A925
:1011700026969FAF2697AAA92796AFAF2797BBA918
:101180002896BFAF28972CA929962FAF2997809131
:10119000A307882389F03DA9332371F0113009F4A6
:1011A00050C18090AA079090AB07A090AC07B09078
:1011B000AD0711E01092A3078091AA079091AB07A9
:1011C000A091AC07B091AD078091AA079091AB07B1
:1011D000A091AC07B091AD0721962CAD3DAD4EADC1
:1011E0005FAD2197821B930BA40BB50B89399840F7
:1011F000A105B10580F04CAD442369F0109222089E
:1012000010922308109224081092250810922808A2
:10121000109227081CAE8091AA079091AB07A0916D
:10122000AC07B091AD078091AA079091AB07A09150
:10123000AC07B091AD0728AD39AD4AAD5BAD821BAF
:10124000930BA40BB50B81319742A105B10518F0A2
:101250004EA9411118C08091AA079091AB07A091A7
:10126000AC07B091AD0721962CAD3DAD4EAD5FAD55
:101270002197821B930BA40BB50B81339547A105D6
:10128000B10508F4E3CE82B1806382B948B18091A0
:10129000360221E030E0B90102C0660F771F8A955F
:1012A000E2F7CB0190913002B90101C0660F9A9527
:1012B000EAF7862B842B9091330201C0220F9A9576
:1012C000EAF7822B88B90E9461120E94EF120E94F5
:1012D000E3120E94D8010E94CF018A981F922F9298
:1012E00085EE94E09F938F9388EB97E09F938F9385
:1012F0000E94D11488EB97E00E9429130F900F9061
:101300000F900F900F900F90C45BDF4F0FB6F894C3
:10131000DEBF0FBECDBFDF91CF911F910F91FF9028
:10132000EF90DF90CF90BF90AF909F908F907F9085
:101330006F905F904F903F902F90089582B18F7C77
:1013400082B986EF94E00E9486136FEF70E782E027
:10135000615070408040E1F700C0000088E095E0F7
:101360000E9486134090AA075090AB076090AC078C
:101370007090AD07A1E0B0E0B0931D08A0931C08E9
:101380006FCE8091AA079091AB07A091AC07B09166
:10139000AD0784199509A609B70981329340A105C3
:1013A000B10560F188E0E7E9F5E0DE01999601908A
:1013B0000D928A95E1F701E0030DE32DF0E0EE0FC9
:1013C000FF1F41E050E04C0F5D1FE40FF51F6081EF
:1013D0007181CE0189960E94C6146FE574E0CE013A
:1013E00089960E94C614CE0189960E94861350E207
:1013F000450E53E0551E611C711C302E64E13612FF
:101400002FCE82E090E090931D0880931C0828CE98
:101410008C379C4F0CF09DCE6EA961119ACE8091B5
:10142000AA079091AB07A091AC07B091AD0788AF28
:1014300099AFAAAFBBAF89E295E00E9429130EAB2A
:1014400088CE8091AA079091AB07A091AC07B0918C
:10145000AD0788199909AA09BB09803B9240A105EB
:10146000B105A8F48091AA079091AB07A091AC07B1
:10147000B091AD0788199909AA09BB098F36924026
:10148000A105B10520F08FE395E00E94291310E03B
:1014900091CE8F929F92AF92BF92CF92DF92EF92B6
:1014A000FF92CF93DF9348B18091360221E030E084
:1014B000B90102C0660F771F8A95E2F7CB018095CC
:1014C000842388B97FEF89E698E17150804090408D
:1014D000E1F700C0000048B180913002B90102C0BC
:1014E000660F771F8A95E2F7CB0190913302B9011D
:1014F00001C0660F9A95EAF7862B8095842388B9F8
:101500007FEF87EA91E6715080409040E1F700C09C
:10151000000087B190913F0201C0220F9A95EAF72F
:10152000282B27B90E94C8010E94D1010E94DD1218
:101530008090AA079090AB07A090AC07B090AD0741
:101540008A9AD0E0C12CD12C760120E0C0E08091B5
:10155000A5078823D9F040911E088D2F90E050E018
:10156000481B590B4B35510544F440911E0850E07F
:10157000481B590B463A5F4F0CF4CF5FD0911E08C1
:1015800080911F08809120081092A5078091A307E1
:101590008823F9F08091AA079091AB07A091AC073E
:1015A000B091AD0788199909AA09BB0989309740FC
:1015B000A105B10560F0213009F469C0C090AA0707
:1015C000D090AB07E090AC07F090AD0721E010920F
:1015D000A3078091AA079091AB07A091AC07B091A7
:1015E000AD0788199909AA09BB0981309941A1055C
:1015F000B10508F4ACCF0E94E3120E94D8010E940A
:10160000CF0148B18091360221E030E0B90102C03B
:10161000660F771F8A95E2F7CB0190913002B901EE
:1016200001C0660F9A95EAF7862B842B90913302BE
:10163000A90101C0440F9A95EAF7842B90913F02CB
:1016400001C0220F9A95EAF7822B88B98A981F92D7
:10165000CF9385EE94E09F938F9388EB97E09F93D1
:101660008F930E94D1140F900F900F900F900F90B6
:101670000F9088EB97E0DF91CF91FF90EF90DF9094
:10168000CF90BF90AF909F908F900C942913809132
:10169000AA079091AB07A091AC07B091AD078C1948
:1016A0009D09AE09BF09873B9240A105B105A8F489
:1016B0008091AA079091AB07A091AC07B091AD07BC
:1016C0008C199D09AE09BF0988369240A105B10564
:1016D00020F08FE395E00E94291320E078CF8F92CD
:1016E0009F92AF92BF92CF92DF92EF92FF92CF93F1
:1016F000DF9348B18091360221E030E0B90102C0A9
:10170000660F771F8A95E2F7CB018095842388B90D
:101710007FEF89E698E1715080409040E1F700C08A
:10172000000048B180913002B90102C0660F771FF6
:101730008A95E2F7CB0190913302B90101C0660F9F
:101740009A95EAF7862B8095842388B97FEF87EAFC
:1017500091E6715080409040E1F700C00000809118
:1017600007019091420201C0220F9A95EAF7282BB7
:10177000209307010E94C8010E94D1010E94DD123E
:101780008090AA079090AB07A090AC07B090AD07EF
:101790008A9AD0E0C12CD12C760120E0C0E0809163
:1017A000A5078823D9F040911E088D2F90E050E0C6
:1017B000481B590B4B35510544F440911E0850E02D
:1017C000481B590B463A5F4F0CF4CF5FD0911E086F
:1017D00080911F08809120081092A5078091A3078F
:1017E0008823F9F08091AA079091AB07A091AC07EC
:1017F000B091AD0788199909AA09BB0989379540A5
:10180000A105B10560F0213009F46DC0C090AA07B0
:10181000D090AB07E090AC07F090AD0721E01092BC
:10182000A3078091AA079091AB07A091AC07B09154
:10183000AD0788199909AA09BB09813A9F40A105FA
:10184000B10508F4ACCF0E94E3120E94D8010E94B7
:10185000CF0148B18091360221E030E0B90102C0E9
:10186000660F771F8A95E2F7CB0190913002B9019C
:1018700001C0660F9A95EAF7862B842B909133026C
:10188000A90101C0440F9A95EAF7842B88B9809189
:1018900008019091420201C0220F9A95EAF7282B85
:1018A000209308018A981F92CF9385EE94E09F932E
:1018B0008F9388EB97E09F938F930E94D1140F90A2
:1018C0000F900F900F900F900F9088EB97E0DF91A3
:1018D000CF91FF90EF90DF90CF90BF90AF909F900F
:1018E0008F900C9429138091AA079091AB07A09137
:1018F000AC07B091AD078C199D09AE09BF09873BB4
:101900009240A105B105A8F48091AA079091AB0778
:10191000A091AC07B091AD078C199D09AE09BF0924
:1019200088369240A105B10520F08FE395E00E9432
:10193000291320E074CF8F929F92AF92BF92CF92E3
:10194000DF92EF92FF92CF93DF9348B180913602FE
:1019500021E030E0B90102C0660F771F8A95E2F7F7
:10196000CB018095842388B97FEF89E698E1715097
:1019700080409040E1F700C0000048B18091300203
:10198000B90102C0660F771F8A95E2F7CB019091EB
:101990003302B90101C0660F9A95EAF7862B80954C
:1019A000842388B97FEF87EA91E6715080409040A8
:1019B000E1F700C00000809107019091450201C04D
:1019C000220F9A95EAF7282B209307010E94C8015D
:1019D0000E94D1010E94DD128090AA079090AB076F
:1019E000A090AC07B090AD078A9AD0E0C12CD12C62
:1019F000760120E0C0E08091A5078823D9F04091CE
:101A00001E088D2F90E050E0481B590B4B355105B7
:101A100044F440911E0850E0481B590B463A5F4F72
:101A20000CF4CF5FD0911E0880911F088091200890
:101A30001092A5078091A3078823F9F08091AA0747
:101A40009091AB07A091AC07B091AD0788199909A7
:101A5000AA09BB0989309740A105B10560F0213082
:101A600009F46DC0C090AA07D090AB07E090AC0716
:101A7000F090AD0721E01092A3078091AA07909102
:101A8000AB07A091AC07B091AD0788199909AA09D5
:101A9000BB0981309941A105B10508F4ACCF0E9482
:101AA000E3120E94D8010E94CF0148B18091360212
:101AB00021E030E0B90102C0660F771F8A95E2F796
:101AC000CB0190913002B90101C0660F9A95EAF7F7
:101AD000862B842B90913302A90101C0440F9A9563
:101AE000EAF7842B88B9809108019091450201C0E2
:101AF000220F9A95EAF7282B209308018A981F92C3
:101B0000CF9385EE94E09F938F9388EB97E09F931C
:101B10008F930E94D1140F900F900F900F900F9001
:101B20000F9088EB97E0DF91CF91FF90EF90DF90DF
:101B3000CF90BF90AF909F908F900C94291380917D
:101B4000AA079091AB07A091AC07B091AD078C1993
:101B50009D09AE09BF09873B9240A105B105A8F4D4
:101B60008091AA079091AB07A091AC07B091AD0707
:101B70008C199D09AE09BF0988369240A105B105AF
:101B800020F08FE395E00E94291320E074CF8F921C
:101B90009F92AF92BF92CF92DF92EF92FF92CF933C
:101BA000DF9348B18091360221E030E0B90102C0F4
:101BB000660F771F8A95E2F7CB018095842388B959
:101BC0007FEF89E698E1715080409040E1F700C0D6
:101BD000000048B180913002B90102C0660F771F42
:101BE0008A95E2F7CB0190913302B90101C0660FEB
:101BF0009A95EAF7862B8095842388B97FEF87EA48
:101C000091E6715080409040E1F700C00000809163
:101C100007019091480201C0220F9A95EAF7282BFC
:101C2000209307010E94C8010E94D1010E94DD1289
:101C30008090AA079090AB07A090AC07B090AD073A
:101C40008A9AD0E0C12CD12C760120E0C0E08091AE
:101C5000A5078823D9F040911E088D2F90E050E011
:101C6000481B590B4B35510544F440911E0850E078
:101C7000481B590B463A5F4F0CF4CF5FD0911E08BA
:101C800080911F08809120081092A5078091A307DA
:101C90008823F9F08091AA079091AB07A091AC0737
:101CA000B091AD0788199909AA09BB0989379540F0
:101CB000A105B10560F0213009F47FC0C090AA07EA
:101CC000D090AB07E090AC07F090AD0721E0109208
:101CD000A3078091AA079091AB07A091AC07B091A0
:101CE000AD0788199909AA09BB09813A9F40A10546
:101CF000B10508F4ACCF0E94E3120E94D8010E9403
:101D0000CF0148B12091360281E090E0BC0102C0D1
:101D1000660F771F2A95E2F79B0130913002BC01D4
:101D200001C0660F3A95EAF7262B242B3091330237
:101D3000AC0101C0440F3A95EAF7242B28B9409131
:101D4000080120914802BC0102C0660F771F2A9546
:101D5000E2F79B0130914B02BC0101C0660F3A953E
:101D6000EAF7262B242B30914E0201C0880F3A95BA
:101D7000EAF7822B809308018A981F92CF9385EE11
:101D800094E09F938F9388EB97E09F938F930E94AB
:101D9000D1140F900F900F900F900F900F9088EB31
:101DA00097E0DF91CF91FF90EF90DF90CF90BF90C1
:101DB000AF909F908F900C9429138091AA079091D7
:101DC000AB07A091AC07B091AD078C199D09AE0986
:101DD000BF09873B9240A105B105A8F48091AA07ED
:101DE0009091AB07A091AC07B091AD078C199D09FC
:101DF000AE09BF0988369240A105B10520F08FE3F6
:101E000095E00E94291320E062CF7F928F929F92EB
:101E1000AF92BF92CF92DF92EF92FF920F931F93F8
:101E2000CF93DF9348B12091360281E090E0BC016E
:101E300002C0660F771F2A95E2F79B0120952423A5
:101E400028B97FEF29E638E1715020403040E1F7B2
:101E500000C0000048B120913002BC0102C0660FF2
:101E6000771F2A95E2F79B0130913302BC0101C034
:101E7000660F3A95EAF7262B2095242328B97FEFA1
:101E800027EA31E6715020403040E1F700C0000001
:101E900047B120913902BC0102C0660F771F2A9515
:101EA000E2F79B0130913C0201C0880F3A95EAF7B6
:101EB000822B842B87B90E94C8010E94D1010E9405
:101EC000DD120E9467128090AA079090AB07A09045
:101ED000AC07B090AD078A9A712C10E000E0C12CDD
:101EE000D12C7601C0E0D0E08091A5078823E1F0F5
:101EF00020911E08872D90E030E0281B390B2B35F0
:101F0000310544F420911E0830E0281B390B263A95
:101F10003F4F0CF4DF5F70901E0880911F08809186
:101F200020080F5F1092A5070A3059F5609122082A
:101F3000709123088091240890912508209127080A
:101F40003091280850E040E00E94B113CA01B90165
:101F50000E9402140E946E140E94D3136E507109E5
:101F60006330710508F411E01092220810922308E2
:101F70001092240810922508109228081092270821
:101F800000E08091A3078823F9F08091AA0790913F
:101F9000AB07A091AC07B091AD0788199909AA09C0
:101FA000BB098D369740A105B10560F0C13009F439
:101FB0007CC0C090AA07D090AB07E090AC07F0902F
:101FC000AD07C1E01092A3078091AA079091AB07DB
:101FD000A091AC07B091AD0788199909AA09BB096E
:101FE000813A9F40A105B10508F47ECF0E94E3121B
:101FF0000E94D8010E94CF010E94701248B18091C6
:10200000360221E030E0B90102C0660F771F8A95E1
:10201000E2F7CB0190913002B90101C0660F9A95A9
:10202000EAF7862B842B90913302A90101C0440F5B
:102030009A95EAF7842B90913902A90101C0440FC7
:102040009A95EAF7842B90913C0201C0220F9A9551
:10205000EAF7822B88B98A981F92DF9385EE94E085
:102060009F938F9388EB97E09F938F930E94D11457
:1020700088EB97E00E9429130F900F900F900F901C
:102080000F900F901123C9F18FE995E0DF91CF9167
:102090001F910F91FF90EF90DF90CF90BF90AF9086
:1020A0009F908F907F900C9429138091AA07909114
:1020B000AB07A091AC07B091AD078C199D09AE0993
:1020C000BF09873B9240A105B105A8F48091AA07FA
:1020D0009091AB07A091AC07B091AD078C199D0909
:1020E000AE09BF0988369240A105B10520F08FE303
:1020F00095E00E942913C0E065CFDF91CF911F9139
:102100000F91FF90EF90DF90CF90BF90AF909F9096
:102110008F907F90089581FF05C0129A80FF04C0C0
:10212000139A08951298FACF139808951F920F9258
:102130000FB60F9211248F939F93AF93BF9380910B
:10214000AA079091AB07A091AC07B091AD0701969B
:10215000A11DB11D8093AA079093AB07A093AC0774
:10216000B093AD07BF91AF919F918F910F900FBE2C
:102170000F901F9018951F920F920FB60F92112477
:102180000BB60F922F933F934F935F936F937F9371
:102190008F939F93AF93BF93EF93FF938091AE077D
:1021A000813019F58091A6079091A70780931E08AA
:1021B00083E00E948B1082E08093AE071092A70705
:1021C0001092A607FF91EF91BF91AF919F918F91D0
:1021D0007F916F915F914F913F912F910F900BBE27
:1021E0000F900FBE0F901F9018958091AE07823010
:1021F00059F48091A6079091A70780931F0881E06A
:102200000E948B1083E0D8CF8091AE07833079F4A1
:102210008091A6079091A7078093200880E00E94F4
:102220008B1081E08093AE078093A507C7CF81E034
:102230008093AE0780E00E948B10C0CF1F920F9258
:102240000FB60F9211248F939F9381B390E2892749
:1022500081BB9F918F910F900FBE0F901F9018958B
:102260001F920F920FB60F9211240BB60F922F935D
:102270003F934F935F938F939F93EF93FF9380913F
:10228000B507813069F0823031F11092B20081E0FF
:102290008093B507809169008E7F809369000CC0A0
:1022A0008091B2008093B307809169008160809330
:1022B000690082E08093B507FF91EF919F918F9124
:1022C0005F914F913F912F910F900BBE0F900FBEDA
:1022D0000F901F9018958091B2008093B2071092D2
:1022E000B200809169008E7F8093690091E09093A5
:1022F000B5078091B2072091B307E091B607F0913E
:10230000B707821BEE0FFF1FE75DF74F8083E09159
:10231000B607F091B7078091B207EE0FFF1FE75D98
:10232000F74F81832091B6073091B707A9014F5F1E
:102330005F4F5093B7074093B6072436310508F432
:10234000BBCF9093B107E898B7CF1F920F920FB60B
:102350000F9211240BB60F928F939F93EF93FF93DD
:1023600081E08093A307E9E6F0E0808190E189278E
:102370008083FF91EF919F918F910F900BBE0F90F3
:102380000FBE0F901F9018951F920F920FB60F92CD
:1023900011248F939F938091A6079091A707019690
:1023A0009093A7078093A6079F918F910F900FBEE0
:1023B0000F901F9018951F920F920FB60F92112435
:1023C0008F938091C6008093260881E08093A407B4
:1023D0008F910F900FBE0F901F9018951F920F9224
:1023E0000FB60F9211240F900FBE0F901F901895EB
:1023F0001F920F920FB60F9211242F934F935F935A
:102400006F937F938F939F93AF93BF938091790046
:102410008F57990B97FF03C09195819591098093F0
:102420002108209121088091210840912208509193
:1024300023086091240870912508289FC001112469
:10244000092E000CAA0BBB0B840F951FA61FB71FEC
:102450008093220890932308A0932408B093250822
:1024600080912708909128080196909328088093DE
:102470002708BF91AF919F918F917F916F915F914D
:102480004F912F910F900FBE0F901F901895ECE772
:10249000F0E080818064808380818360808380819C
:1024A00080628083EAE7F0E08081876080838081BA
:1024B000806280838081886080838081806880835F
:1024C0000895EAE7F0E08081877F80830895EAE756
:1024D000F0E08081886080838081806480830895BB
:1024E000089580917B00806480937B0080917A00C6
:1024F00086FDFCCF80917800909179000895519AE3
:10250000599A84B1866084B90895599886E090E01C
:1025100024E630E0A901082E02C0559547950A949B
:10252000E2F740FF1DC02A9A299A2998019790F74F
:1025300090E080E02BE030E041E050E01B9B09C0E0
:10254000BA01022E02C0660F771F0A94E2F7862BAB
:10255000972B299A29982150310980F7599A089583
:102560002A98E2CF84B1876084B9289A8CB58365B4
:102570008CBD08958EBD0DB407FEFDCF8EB50895B8
:1025800084B5826084BD85B5836085BDEEE6F0E0EC
:1025900080818260808389EF87BD0895E1E8F0E063
:1025A00080818860808380818360808380E493E081
:1025B00090938900809388000895EFE6F0E0808191
:1025C000826080830895EFE6F0E080818D7F8083D4
:1025D0000895E1EBF0E08081846080830895E1EB71
:1025E000F0E080818B7F80830895E1E9F0E08081D5
:1025F00088608083808185608083E1E7F0E080816E
:102600008260808388E09DE3909399008093980096
:102610000895E1E7F0E080818D7F8083089580E177
:102620008093C4001092C500E0ECF0E080818260ED
:102630008083E1ECF0E08081886180838081806824
:10264000808308959091C00095FFFCCF8093C600D1
:102650000895CF93DF93EC018991811103C0DF913D
:10266000CF9108950E942213F7CF80E18093CC0090
:102670001092CD00E8ECF0E0808182608083E9EC8C
:10268000F0E080818861808308959091C80095FF73
:10269000FCCF8093CE00089580E18093D400109207
:1026A000D500E0EDF0E0808182608083E1EDF0E034
:1026B00080818861808308959091D00095FFFCCF40
:1026C0008093D6000895CF93DF93EC018991811117
:1026D00003C0DF91CF9108950E945C13F7CF8FEC78
:1026E0008093340110923501E0E3F1E08081826053
:1026F0008083E1E3F1E08081886180830895909197
:10270000300195FFFCCF809336010895CF93DF937E
:10271000EC018991811103C0DF91CF9108950E944E
:102720007F13F7CFCF93DF931F921F92CDB7DEB702
:102730000E9483011A8219828091A4078823E1F301
:10274000609126081092A40770E0CE0101960E94C5
:102750004A0183B7816083BF889583B78E7F83BF2B
:10276000EBCFA1E21A2EAA1BBB1BFD010DC0AA1FB5
:10277000BB1FEE1FFF1FA217B307E407F50720F0EA
:10278000A21BB30BE40BF50B661F771F881F991F65
:102790001A9469F760957095809590959B01AC01AE
:1027A000BD01CF0108950E94471488F09F5798F00B
:1027B000B92F9927B751B0F0E1F0660F771F881F46
:1027C000991F1AF0BA95C9F714C0B13091F00E9460
:1027D0006114B1E008950C946114672F782F882755
:1027E000B85F39F0B93FCCF3869577956795B39587
:1027F000D9F73EF490958095709561957F4F8F4FF6
:102800009F4F0895E89409C097FB3EF490958095FA
:10281000709561957F4F8F4F9F4F9923A9F0F92FA6
:1028200096E9BB279395F695879577956795B79524
:10283000F111F8CFFAF4BB0F11F460FF1BC06F5F0A
:102840007F4F8F4F9F4F16C0882311F096E911C01C
:10285000772321F09EE8872F762F05C0662371F03D
:1028600096E8862F70E060E02AF09A95660F771F51
:10287000881FDAF7880F9695879597F9089557FD81
:102880009058440F551F59F05F3F71F04795880FDE
:1028900097FB991F61F09F3F79F087950895121675
:1028A00013061406551FF2CF4695F1DF08C0161621
:1028B00017061806991FF1CF8695710561050894D2
:1028C0000895E894BB2766277727CB0197F90895E9
:1028D00019F416F40C94BC140C94AE140E94471412
:1028E000B8F39923C9F3B6F39F57550B87FF0E949E
:1028F000BF140024A0E640EA9001805856959795B1
:1029000028F4805C660F771F881F20F02617370792
:10291000480730F4621B730B840B202931294A2BA2
:10292000A69517940794202531254A2758F7660F56
:10293000771F881F20F026173707480730F4620BEF
:10294000730B840B200D311D411DA09581F7B9013A
:10295000842F9158880F9695879508959F3F31F061
:10296000915020F4879577956795B795880F911DBD
:102970009695879597F908959FEF80EC089591506B
:102980005040660F771F881FD2F70895FB01DC01C6
:102990000D900020E9F7119701900D920020E1F7CA
:1029A00008950F931F93CF93DF93CDB7DEB72E9784
:1029B0000FB6F894DEBF0FBECDBF0E891F8986E02B
:1029C0008C831A8309838FEF9FE79E838D83AE01EB
:1029D000465E5F4F688D798DCE0101960E9401158C
:1029E0002F813885020F131FF80110822E960FB623
:1029F000F894DEBF0FBECDBFDF91CF911F910F9135
:102A000008952F923F924F925F926F927F928F9292
:102A10009F92AF92BF92CF92DF92EF92FF920F936D
:102A20001F93CF93DF9300D000D000D01F921F924E
:102A3000CDB7DEB77C013B018A01FC01178216820B
:102A4000838181FFDDC1CE0101965C01F701938195
:102A5000F30193FD859193FF81913F01882309F450
:102A600053C1853239F493FD859193FF81913F01E4
:102A7000853229F4B70190E00E941917E7CF912C15
:102A8000212C312CFFE1F31538F08B3211F190F449
:102A9000803209F1833229F137FC3CC020ED280F48
:102AA0002A3050F536FE20C08AE0989E200D112471
:102AB000922E06C08D3291F0803371F7689430F811
:102AC000F30193FD859193FF81913F018111DACF4D
:102AD00021C0689431F8689432F8F2CF689433F8E2
:102AE000EFCF689434F8ECCFEAE02E9E200D11244D
:102AF000222E689435F8E4CF8E3229F436FC04C1D6
:102B0000689436F8DDCF8C3619F4689437F8D8CF4E
:102B10008836B1F2982F9F7D95549330E0F083363C
:102B2000A1F18337C1F1833509F063C02801F2E0D8
:102B30004F0E511CF801C080D180692D70E036FC29
:102B400002C06FEF7FEFC6010E9403174C0168942B
:102B500037F882010AC00C5F1F4FFFE3F983882416
:102B60008394912C6501E89437F833FE2DC0522CE4
:102B70008114910471F5552009F468CFB70180E202
:102B800090E00E9419175A94F6CFF801808189834A
:102B90000E5F1F4FE4CF2801F2E04F0E511CF801E9
:102BA000C080D180692D70E036FC02C06FEF7FEFEE
:102BB000C6010E940E174C018201D5CFB70180E2F9
:102BC00090E00E9419172A942814190409F0B0F70C
:102BD000CECFF60137FC859137FE81916F01B701A9
:102BE00090E00E94191751105A94F1E08F1A910841
:102BF000BFCF843619F0893609F077C0F80137FE67
:102C00006BC060817181828193810C5F1F4FF32DB6
:102C1000FF763F2E97FF09C090958095709561953E
:102C20007F4F8F4F9F4F689437F82AE030E0A5011F
:102C30000E944917C82ECA188C2C432C36FE0CC093
:102C4000E89440F8C91440F434FE05C032FC03C0D7
:102C5000F32DFE7E4F2E892C44FEAAC0FE01EC0D02
:102C6000F11D8081803309F09CC0242D297E422EE5
:102C7000842D8870582E43FCAAC040FEA4C09C2C12
:102C8000821418F42C0C922C981844FEA6C0B7019C
:102C900080E390E00E94191742FE09C088E790E0A7
:102CA00041FE02C088E590E0B7010E941917C914DF
:102CB00008F49FC0CA94D12C9FEFC91AD90ACA0C34
:102CC000DB1CF60182916F01B70190E00E94191799
:102CD000AC14BD04B1F74FCF60817181072E000C99
:102CE000880B990B0E5F1F4F92CFD32CE894D4F82A
:102CF0002AE030E08537E1F1232D297FD22E8F366F
:102D0000A9F1F0F4883551F1F701868197812B966E
:102D10000FB6F894DEBF0FBECDBFDF91CF911F91EC
:102D20000F91FF90EF90DF90CF90BF90AF909F906A
:102D30008F907F906F905F904F903F902F9008956D
:102D4000803749F0883701F7D4FE02C06894D2F882
:102D500020E130E00DC06894D4F8F6CF34FE03C013
:102D6000822F8660D82E20E132E002C028E030E0D9
:102D7000F801D7FE0FC060817181828193810C5F61
:102D80001F4FA5010E944917C82ECA183D2CE89470
:102D900037F852CF6081718190E080E00E5F1F4F65
:102DA000F0CF42FC02C0839463CF8394839460CFBE
:102DB000842D867809F45CCFF6CFB70180E290E0ED
:102DC0000E94191783948214C0F3512C5ECF522CA9
:102DD0005818821408F459CFF8CF842D867809F456
:102DE00066CF8BE241FE80E247FC8DE2B70190E0C6
:102DF0005CCFB70180E390E00E9419179A9457CFF7
:102E00008FEF9FEF84CFFC0105906150704001105F
:102E1000D8F7809590958E0F9F1F0895FC01615003
:102E2000704001900110D8F7809590958E0F9F1FEC
:102E300008950F931F93CF93DF93182F092FEB0162
:102E40008B8181FD09C01FEF0FEF812F902FDF9144
:102E5000CF911F910F91089582FF14C02E813F8161
:102E60008C819D81281739073CF4E881F981CF01D5
:102E700001969983888310838E819F8101969F8319
:102E80008E83E3CFE885F985812F1995892BA1F3EE
:102E9000DACFFA01AA27283051F1203181F1E894E4
:102EA0006F936E7F6E5F7F4F8F4F9F4FAF4FB1E03D
:102EB0003ED0B4E03CD0670F781F891F9A1FA11D38
:102EC000680F791F8A1F911DA11D6A0F711D811D39
:102ED000911DA11D20D009F468943F912AE0269FFE
:102EE00011243019305D3193DEF6CF010895462F5D
:102EF0004770405D4193B3E00FD0C9F7F6CF462F3E
:102F00004F70405D4A3318F0495D31FD40524193A6
:102F100002D0A9F7EACFB4E0A69597958795779563
:102F20006795BA95C9F700976105710508959B01EA
:102F3000AC010A2E06945795479537952795BA9573
:102F4000C9F7620F731F841F951FA01D0895F89481
:022F5000FFCFB1
:102F520070FF067804077409077C0E077213077A5C
:102F62001807761D077E220771270779270775271D
:102F7200077D27077327077B27077727077F270701
:102F8200002C07013507023E0703480704530705D3
:102F92005E07076707067007057907048207038D36
:102FA20007029807B70912B80912B80912B809122C
:102FB200B80912B80912B80912B80912B80912B838
:102FC200093A127C7F137B7F137C7E137B7F157BF8
:102FD2007F137B7F127C7F127C7E137B7F127C7E31
:102FE200137B7F127C7E137B7F127C7E137B7F128E
:102FF2007C7E137B7F127B7F137B7E137B5AB70908
:1030020012B70912B70912B70A12B70912B70C128E
:10301200B80912B70912B70A12B70912B70913B7DA
:103022000912B70A12B70912B80912B70913B70978
:1030320012B70A12B70912B80912B70913B709125F
:10304200B80912B70913B70912B80912B70913B7A9
:103052000912B80912B80912B70A12B70912B80947
:1030620012B8092847054B054F05530557055B055F
:103072005F05630567056B056F05730577057B05BE
:103082007F05830587058B058F059305B005DA015A
:10309200B9056D03C005F603CE0516059B073B0671
:1030A200DC05A307E905490AFD056F0B12069B0C17
:1030B2002606C70D3B06050F4706EA004C06DB0055
:1030C2005A06DB006806DB007606DB008406DB00BE
:1030D2009206DB00A006DB00AE06DB00BC06DB00CE
:1030E200CA06DB00D906DB00E806DB00F706DB00D8
:1030F2000000300001000100330002000200330032
:10310200030003003300040004003300050005003F
:1031120033000600060033000700070033000800F2
:10312200080033000900090033000A000A003300D6
:103132000B0001002A000C00010031000D0002000A
:1031420031000D00030031000D00040031000D00BC
:10315200050031000D00060031000D0007003100AE
:103162000D00080031000D00090031000D000A00B9
:1031720031000D000B0031000D000C0031000D007C
:103182000C0033000D00746573742061626F7274F9
:103192006564210D0A0055415254322052583A209A
:1031A20025750D0A003A30317732303D302C302C03
:1031B2000D0A003A30317731323D302C0D0A00765B
:1031C2006F6C746167652063726F737365640D0A57
:1031D20000626565700D0A00706572696F64206F28
:1031E2006B0D0A0064757479206379636C65206FD6
:1031F2006B0D0A004C315F4F55542026204C325F34
:103202004F5554204F46463A20504153530D0A0021
:10321200726D732073756D3A20256C7509726D732A
:10322200206E756D3A2025750D0A00726D733A2075
:1032320025750D0A006C656420626C696E6B733AC9
:103242002025750D0A003A30317732303D31363063
:103252002C3530302C0D0A003A30317731323D3185
:103262002C0D0A004C315F4F55542026204C325F02
:103272004F5554204F4E0D0A004C315F4F5554208C
:1032820026204C325F4F5554204F46460D0A0062AD
:10329200656570210D0A003136300031363100315A
:1032A20036320031363300313634003136350031B2
:1032B2003636003136370031363800313639003192
:1032C2003730003137310031373200313733003196
:1032D2003734003137350031373600313737003176
:1032E200373800313739003A30317731303D0052CA
:1032F2004D5320504153533A207E373828562900E7
:10330200504F574552204F4E0047524F554E4400A2
:1033120050494C4F54205354415445204100504988
:103322004C4F542053544154452042004F5645526D
:103332002043555252454E5400474643495F4C3153
:103342005F4C4F575F4C45414B4147450047464311
:10335200495F4C315F484947485F4C45414B4147C3
:103362004500474643495F4C325F4C4F575F4C45DF
:10337200414B41474500474643495F4C325F48490C
:1033820047485F4C45414B41474500535455434BD9
:103392002052454C41590055415254005354415416
:1033A200452041424F52542031005354415445204C
:1033B20041424F525420320053544154452041421D
:1033C2004F525420330053544154452041424F52EE
:1033D2005420340053544154452041424F5254200A
:1033E200350053544154452041424F525420360037
:1033F20053544154452041424F52542037005354B4
:103402004154452041424F525420380053544154B4
:10341200452041424F5254203900535441544520D3
:1034220041424F52542031300053544154452041BF
:10343200424F5254203131005354415445204142AD
:103442004F52542031320054484520454E440054D6
:1034520050313200545031390054503231005450FE
:103462003232005450323500545032360054503308
:10347200350054503338004E4F4E450053575F4C81
:10348200315F494E0053575F4C325F494E005357EC
:103492005F474E445F494E0053575F5354414B5F61
:1034A2004C310053575F5354414B5F4C32005357DA
:1034B2005F4C315F4C4C0053575F4C315F484C00BE
:1034C20053575F4C325F4C4C0053575F4C325F484E
:1034D2004C0053575F53544154455F420053575F6A
:1034E20053544154455F410053575F44494F44454B
:0234F2000000D8
:00000001FF
